:100000000C942A000C9447000C9447000C94CC0DDF
:100010000C9447000C9447000C9447000C94100E6D
:100020000C9447000C9447000C94250E0C94470048
:100030000C9447000C9447000C9447000C94470024
:100040000C9447000C9447000C9447000C94470014
:100050000C94470011241FBECFE5D8E0DEBFCDBF12
:1000600011E0A0E6B0E0E4EDFDE102C005900D92E4
:10007000A237B107D9F711E0A2E7B1E001C01D92A4
:10008000A439B107E1F70E94650E0C94E80E0C94B8
:100090000000EF92FF920F931F937B018C0120E0F1
:1000A00030E040E05FE40E94490388238CF0C801FF
:1000B000B70120E030E040E05FE40E94C1010E940F
:1000C000A9039B01AC01205030404040504806C07D
:1000D000C801B7010E94A9039B01AC01B901CA0183
:1000E0001F910F91FF90EF900895A0E0B0E0EBE733
:1000F000F0E00C94B10EDC012B01FA019C919230DE
:1001000008F439C1EB018881823008F433C194309E
:1001100069F4843009F02FC111969C91119789815F
:10012000981709F428C1A0E6B0E025C1843009F48D
:1001300021C18230A9F4923009F01DC19A01AD01AC
:1001400088E0EA010990AE01E90109929E0181501F
:10015000C1F7E201898111969C918923818308C1AD
:10016000923009F407C112962D903C901397EB0141
:100170008A819B811496AD90BD90CD90DC901797AD
:10018000EC80FD800E811F819101281B390BB90184
:1001900037FF04C066277727621B730B6032710537
:1001A0000CF061C0121613066CF537014801062EDB
:1001B00004C096948794779467940A94D2F721E0C8
:1001C00030E040E050E004C0220F331F441F551FB1
:1001D0006A95D2F721503040404050402E213F21B7
:1001E00040235123211531054105510521F021E01E
:1001F00030E040E050E079018A01E628F72808293C
:1002000019293CC0232BD1F1260E371E350146019A
:10021000062E04C096948794779467940A94D2F734
:1002200021E030E040E050E004C0220F331F441FC3
:10023000551F6A95D2F721503040404050402A2146
:100240003B214C215D21211531054105510521F04E
:1002500021E030E040E050E059016A01A628B728CB
:10026000C828D9280BC0821593052CF01C01AA249C
:10027000BB24650103C0EE24FF24870111969C91E5
:10028000D20111968C91981709F445C0992339F041
:10029000A80197012A193B094C095D0906C0A6016E
:1002A00095012E193F09400B510B57FD08C01182D3
:1002B0003382228224833583468357831DC081E0A5
:1002C00081833382228288279927DC01821B930B4A
:1002D000A40BB50B84839583A683B7830DC0220F2F
:1002E000331F441F551F24833583468357838281E0
:1002F000938101979383828324813581468157813D
:10030000DA01C9010197A109B1098F5F9F4FAF4F72
:10031000BF4328F30BC0918333822282EA0CFB1C7B
:100320000C1D1D1DE482F5820683178383E0808304
:10033000248135814681578157FF1AC0C901AA27F8
:1003400097FDA095BA2F81709070A070B0705695EF
:10035000479537952795822B932BA42BB52B848318
:100360009583A683B7838281938101969383828349
:10037000DF0101C0D201CD01CDB7DEB7E2E10C94BF
:10038000CD0EA0E2B0E0E7ECF1E00C94BD0E698385
:100390007A838B839C832D833E834F835887E9E048
:1003A000EE2EF12CEC0EFD1ECE010196B7010E943F
:1003B0009A058E010F5E1F4FCE010596B8010E946F
:1003C0009A058A8991E089278A8BC701B801AE0115
:1003D000475E5F4F0E9475000E94C504A096E6E04C
:1003E0000C94D90EA0E2B0E0E8EFF1E00C94BD0E61
:1003F00069837A838B839C832D833E834F835887C5
:10040000F9E0EF2EF12CEC0EFD1ECE010196B701A6
:100410000E949A058E010F5E1F4FCE010596B8010E
:100420000E949A05C701B801AE01475E5F4F0E9466
:1004300075000E94C504A096E6E00C94D90EA0E2D7
:10044000B0E0E5E2F2E00C94B10E69837A838B832D
:100450009C832D833E834F835887CE010196BE0136
:10046000675F7F4F0E949A05CE010596BE016F5EC1
:100470007F4F0E949A059985923088F08989823051
:10048000C8F0943019F4823051F404C0843029F457
:10049000923081F480E690E0C6C0923049F420E0CA
:1004A0009A858A89981321E02A87CE010996BBC0D4
:1004B000823049F420E09A858A89981321E02A8BBA
:1004C000CE014196B0C02D843E844F8458886D88FB
:1004D0007E888F88988CEE24FF248701AA24BB2471
:1004E000650140E050E060E070E0E0E0F0E0C10174
:1004F00081709070892BE9F0E60CF71C081D191D1E
:100500009A01AB012A0D3B1D4C1D5D1D80E090E062
:10051000A0E0B0E0E614F7040805190520F481E036
:1005200090E0A0E0B0E0BA01A901480F591F6A1F8E
:100530007B1FAA0CBB1CCC1CDD1C97FE08C081E0F5
:1005400090E0A0E0B0E0A82AB92ACA2ADB2A3196B6
:10055000E032F10549F0660C771C881C991C569412
:10056000479437942794C3CFFA85EA892B893C892D
:100570008B859C85280F391F2E5F3F4F17C0CA01FE
:1005800081709070892B61F016950795F794E79428
:1005900080E090E0A0E0B0E8E82AF92A0A2B1B2BC3
:1005A00076956795579547952F5F3F4F77FDE7CF36
:1005B0000CC0440F551F661F771F17FD4160EE0CDE
:1005C000FF1C001F111F21503040403090E05907A0
:1005D00090E0690790E4790760F32B8F3C8FDB0193
:1005E000CA018F779070A070B07080349105A1051A
:1005F000B10561F447FD0AC0E114F10401051105DC
:1006000029F0405C5F4F6F4F7F4F40781A8EFE1786
:1006100011F081E08A8F4D8F5E8F6F8F78A383E01A
:10062000898FCE0149960E94C504A096E2E10C9400
:10063000CD0EA8E1B0E0EFE1F3E00C94BD0E6983CC
:100640007A838B839C832D833E834F83588789E0F5
:10065000E82EF12CEC0EFD1ECE010196B7010E9492
:100660009A058E010F5E1F4FCE010596B8010E94BC
:100670009A058985823040F08989823028F0C70147
:10068000B8010E94120601C08FEF6896E6E00C9454
:10069000D90EA8E1B0E0EFE4F3E00C94BD0E69835D
:1006A0007A838B839C832D833E834F83588789E095
:1006B000E82EF12CEC0EFD1ECE010196B7010E9432
:1006C0009A058E010F5E1F4FCE010596B8010E945C
:1006D0009A058985823040F08989823028F0C701E7
:1006E000B8010E94120601C08FEF6896E6E00C94F4
:1006F000D90EA8E1B0E0EFE7F3E00C94BD0E6983FA
:100700007A838B839C832D833E834F83588789E034
:10071000E82EF12CEC0EFD1ECE010196B7010E94D1
:100720009A058E010F5E1F4FCE010596B8010E94FB
:100730009A058985823040F08989823028F0C70186
:10074000B8010E94120601C081E06896E6E00C94B0
:10075000D90EACE0B0E0EFEAF3E00C94C10E69838F
:100760007A838B839C83CE010196BE016B5F7F4FA2
:100770000E949A058D81823061F1823050F184307F
:1007800021F48E81882351F12EC02F81388537FDC9
:1007900020C06E812F3131051CF06623F9F023C093
:1007A0008EE190E0821B930B29853A854B855C8511
:1007B00004C056954795379527958A95D2F76623B5
:1007C000B1F050954095309521953F4F4F4F5F4F79
:1007D0000EC020E030E040E050E009C02FEF3FEFD6
:1007E0004FEF5FE704C020E030E040E050E8B9019F
:1007F000CA012C96E2E00C94DD0EA8E0B0E0E3E044
:10080000F4E00C94B90E7B018C0161157105810532
:10081000910519F482E0898360C083E089838EE1C9
:10082000C82ED12CDC82CB82ED82FE820F8318870A
:10083000C801B7010E947604FC013197F7FF3BC065
:10084000222733272E1B3F0B57016801022E04C0BD
:10085000D694C794B794A7940A94D2F740E050E096
:1008600060E070E081E090E0A0E0B0E004C0880FBC
:10087000991FAA1FBB1F2A95D2F70197A109B10999
:100880008E219F21A023B1230097A105B10521F05E
:1008900041E050E060E070E04A295B296C297D2945
:1008A0004D835E836F8378878EE190E08E1B9F0B74
:1008B0009C838B8312C0309781F00E2E04C0EE0C07
:1008C000FF1C001F111F0A94D2F7ED82FE820F83D6
:1008D0001887CE1ADF0ADC82CB821A82CE010196FB
:1008E0000E94C5042896EAE00C94D50EEF92FF9280
:1008F0000F931F937B018C0180E0E81680E0F806DF
:1009000081E0080780E0180788F48FEFE816F1040B
:100910000105110531F028F088E090E0A0E0B0E09A
:1009200017C080E090E0A0E0B0E012C080E0E816E0
:1009300080E0F80680E0080781E0180728F088E1E9
:1009400090E0A0E0B0E004C080E190E0A0E0B0E082
:1009500020E230E040E050E0281B390B4A0B5B0BF3
:1009600004C016950795F794E7948A95D2F7F70196
:10097000E859FF4F8081281B310941095109C901FC
:100980001F910F91FF90EF900895DF92EF92FF92E9
:100990000F931F93FC01E480F58006811781D180BD
:1009A0008081823048F480E090E0A0E1B0E0E82A65
:1009B000F92A0A2B1B2BA5C0843009F49FC0823072
:1009C00021F4EE24FF24870105C0E114F1040105A0
:1009D000110519F4E0E0F0E096C0628173819FEFA9
:1009E000623879070CF05BC022E83FEF261B370B1B
:1009F0002A3131052CF020E030E040E050E02AC000
:100A0000B801A701022E04C07695679557954795C2
:100A10000A94D2F781E090E0A0E0B0E004C0880F33
:100A2000991FAA1FBB1F2A95D2F70197A109B109E7
:100A30008E219F21A023B1230097A105B10521F0AC
:100A400081E090E0A0E0B0E09A01AB01282B392BC7
:100A50004A2B5B2BDA01C9018F779070A070B070C0
:100A600080349105A105B10539F427FF09C0205C48
:100A70003F4F4F4F5F4F04C0215C3F4F4F4F5F4F81
:100A8000E0E0F0E02030A0E03A07A0E04A07A0E470
:100A90005A0710F0E1E0F0E079018A0127C06038E0
:100AA000710564F5FB01E158FF4FD801C7018F774D
:100AB0009070A070B07080349105A105B10539F433
:100AC000E7FE0DC080E490E0A0E0B0E004C08FE35A
:100AD00090E0A0E0B0E0E80EF91E0A1F1B1F17FF10
:100AE00005C016950795F794E794319687E016951B
:100AF0000795F794E7948A95D1F705C0EE24FF2473
:100B00008701EFEFF0E06E2F679566276795902FCE
:100B10009F77D794DD24D7948E2F8695492F462B27
:100B2000582F5D29B701CA011F910F91FF90EF90D7
:100B3000DF900895FC01DB01408151812281622F09
:100B40006F7770E0221F2227221F9381892F880F41
:100B5000822B282F30E0991F9927991F11969C937B
:100B6000119721153105A9F541155105610571054B
:100B700011F482E037C082E89FEF13969C938E9326
:100B800012979A01AB0167E0220F331F441F551FD4
:100B90006A95D1F783E08C930DC0220F331F441F59
:100BA000551F12968D919C911397019713969C93C4
:100BB0008E931297203080E0380780E0480780E469
:100BC000580758F314962D933D934D935C931797C4
:100BD00008952F3F310579F44115510561057105DF
:100BE00019F484E08C93089564FF03C081E08C9332
:100BF00012C01C9210C02F57304013963C932E9376
:100C0000129783E08C9387E0440F551F661F771F70
:100C10008A95D1F7706414964D935D936D937C9390
:100C2000179708951F93DC01FB019C91923008F403
:100C300047C08081823008F443C0943051F411964B
:100C40001C91843099F58181682F70E0611B7109D6
:100C50003FC0843021F0923031F48230B9F181818B
:100C6000882389F12DC011961C9111978230F1F0E3
:100C700081811817D9F412962D913C911397828196
:100C800093818217930794F028173907BCF01496C4
:100C90008D919D910D90BC91A02D2481358146812F
:100CA0005781281739074A075B0718F4112341F0C9
:100CB0000AC082179307A407B50740F4112319F05F
:100CC00061E070E005C06FEF7FEF02C060E070E0B0
:100CD000CB011F910895DF93CF93CDB7DEB7A7E285
:100CE000B0E0E7E2F0E0808180648C93A7E2B0E0BE
:100CF000E7E2F0E080818E7F8C93A7E2B0E0E7E24C
:100D0000F0E080818D7F8C93A7E2B0E0E7E2F0E035
:100D100080818B7F8C93A7E2B0E0E7E2F0E08081F6
:100D2000877F8C93A7E2B0E0E7E2F0E080818F7EDE
:100D30008C93A7E2B0E0E7E2F0E080818F7D8C93B6
:100D4000A6E2B0E0E6E2F0E0808181608C93A6E26A
:100D5000B0E0E6E2F0E080818D7F8C93A6E2B0E027
:100D6000E6E2F0E080818B7F8C93A6E2B0E0E6E2E1
:100D7000F0E0808180688C93CF91DF910895DF93BC
:100D8000CF9300D0CDB7DEB7A6E2B0E0E6E2F0E068
:100D9000808180648C93E6E2F0E08081882F90E08F
:100DA000817090700097B9F3E4E2F0E08081882FC1
:100DB00090E09A838983E5E2F0E08081882F90E0DB
:100DC000982F88279C0189819A81822B932B9A8363
:100DD0008983A6E2B0E0E6E2F0E0808180618C9356
:100DE00089819A810F900F90CF91DF910895DF93C1
:100DF000CF93CDB7DEB7A7E3B0E0E7E3F0E08081C3
:100E00008B7F8C93A7E3B0E0E7E3F0E080818D7FF8
:100E10008C93A7E3B0E0E7E3F0E08081877F8C93D9
:100E2000A8E3B0E0E8E3F0E0808184608C93A8E37D
:100E3000B0E0E8E3F0E0808182608C93A8E3B0E06A
:100E4000E8E3F0E0808188608C930E944409A4E587
:100E5000B0E0E4E5F0E0808180648C93ABE5B0E045
:100E6000EBE5F0E0808180628C93CF91DF91089573
:100E7000DF93CF93CDB7DEB72F970FB6F894DEBFD1
:100E80000FBECDBFE6E3F0E08081882F90E0887050
:100E90009070009709F080C080E090E0A8ECB2E488
:100EA0008B879C87AD87BE876B857C858D859E856E
:100EB00020E030E04AE753E40E941F02DC01CB014E
:100EC0008F839887A987BA876F81788589859A8566
:100ED00020E030E040E85FE30E94790388232CF4AF
:100EE00081E090E09E838D833FC06F817885898506
:100EF0009A8520E03FEF4FE757E40E941903181648
:100F00004CF56B857C858D859E8520E030E040E248
:100F100051E40E941F02DC01CB01BC01CD010E9403
:100F20004900DC01CB019E838D830FC089E190E0F5
:100F30009C838B838B819C810197F1F79C838B83AE
:100F40008D819E8101979E838D838D819E810097E7
:100F500069F714C06F81788589859A850E94490058
:100F6000DC01CB019E838D838D819E819A83898351
:100F700089819A810197F1F79A838983E6E3F0E00A
:100F80008081882F90E088709070009719F481E03C
:100F90008F8703C01F8601C01F868F852F960FB6CF
:100FA000F894DEBF0FBECDBFCF91DF910895DF93E0
:100FB000CF93CDB7DEB72F970FB6F894DEBF0FBE35
:100FC000CDBFE6E3F0E08081882F90E082709070E2
:100FD000009709F080C080E090E0A8ECB2E48B8735
:100FE0009C87AD87BE876B857C858D859E8520E03F
:100FF00030E04AE753E40E941F02DC01CB018F83FB
:101000009887A987BA876F81788589859A8520E036
:1010100030E040E85FE30E94790388232CF481E00C
:1010200090E09E838D833FC06F81788589859A8506
:1010300020E03FEF4FE757E40E94190318164CF5E4
:101040006B857C858D859E8520E030E040E251E413
:101050000E941F02DC01CB01BC01CD010E944900AE
:10106000DC01CB019E838D830FC089E190E09C83DE
:101070008B838B819C810197F1F79C838B838D817E
:101080009E8101979E838D838D819E81009769F754
:1010900014C06F81788589859A850E944900DC019A
:1010A000CB019E838D838D819E819A8389838981E3
:1010B0009A810197F1F79A838983E6E3F0E08081D2
:1010C000882F90E082709070009719F481E08F87EC
:1010D00003C01F8601C01F868F852F960FB6F89418
:1010E000DEBF0FBECDBFCF91DF910895DF93CF93C9
:1010F000CDB7DEB7A7E3B0E0E7E3F0E08081806141
:101100008C93CF91DF910895DF93CF93CDB7DEB766
:10111000A7E3B0E0E7E3F0E0808180628C93CF91B9
:10112000DF910895DF93CF93CDB7DEB7A8E3B0E0AA
:10113000E8E3F0E0808180618C93CF91DF910895A6
:10114000DF93CF93CDB7DEB7A8E3B0E0E8E3F0E0FC
:10115000808180628C93CF91DF910895DF93CF934C
:10116000CDB7DEB7A8E3B0E0E8E3F0E080818F7EA2
:101170008C93CF91DF910895DF93CF93CDB7DEB7F6
:10118000A8E3B0E0E8E3F0E080818F7D8C93CF911D
:10119000DF910895DF93CF9300D0CDB7DEB79A8368
:1011A0008983EEE3F0E089818083EFE3F0E08981D9
:1011B0009A81892F99278083ACE3B0E0ECE3F0E0DB
:1011C000808181608C93EDE3F0E080810F900F903F
:1011D000CF91DF910895DF93CF9300D000D0CDB7AA
:1011E000DEB79B838A836C831982EEE3F0E08A8109
:1011F0008083EFE3F0E08A819B81892F99278083A8
:10120000EDE3F0E08C818083EFE5F0E08081881FE2
:101210008827881F882F90E090708130910549F4CD
:1012200081E08983AFE5B0E0EFE5F0E080818F7782
:101230008C93ACE3B0E0ECE3F0E0808184608C93CD
:10124000ACE3B0E0ECE3F0E0808182608C93ECE30F
:10125000F0E08081882F90E082709070959587955E
:1012600081309105A1F38981813039F4AFE5B0E097
:10127000EFE5F0E0808180688C930F900F900F90E5
:101280000F90CF91DF910895DF93CF93CDB7DEB765
:10129000AFE5B0E0EFE5F0E0808180688C93CF911E
:1012A000DF910895DF93CF93CDB7DEB7AFE5B0E020
:1012B000EFE5F0E080818F778C93CF91DF910895F7
:1012C000DF93CF93CDB7DEB7A7E3B0E0E7E3F0E07D
:1012D000808181608C93A8E3B0E0E8E3F0E0808156
:1012E0008E7F8C93CF91DF910895DF93CF93CDB70D
:1012F000DEB7A8E3B0E0E8E3F0E0808181608C93A2
:10130000CF91DF910895DF93CF93CDB7DEB7A8E3F8
:10131000B0E0E8E3F0E080818E7F8C93CF91DF91A5
:101320000895DF93CF93CDB7DEB7E1E3F0E08FEF21
:101330008083A7E3B0E0E7E3F0E0808180648C93F2
:10134000A7E3B0E0E7E3F0E0808180688C930E943F
:10135000EE09CF91DF910895DF93CF9300D0CDB701
:10136000DEB79A838983A2E3B0E089819A81FC0188
:10137000E859FE4F80818C930F900F90CF91DF91B1
:101380000895DF93CF930F92CDB7DEB7898389811C
:10139000813079F4A8E3B0E0E8E3F0E08081806494
:1013A0008C93A8E3B0E0E8E3F0E080818F778C9342
:1013B00011C08981823071F4A8E3B0E0E8E3F0E085
:1013C000808180688C93A8E3B0E0E8E3F0E080815E
:1013D0008F7B8C930F90CF91DF910895DF93CF9304
:1013E000CDB7DEB7A8E3B0E0E8E3F0E080818F7B23
:1013F0008C93A8E3B0E0E8E3F0E080818F778C93F2
:10140000CF91DF910895DF93CF93CDB7DEB7E2E3BD
:10141000F0E01082CF91DF910895DF93CF93CDB7A5
:10142000DEB7A0970FB6F894DEBF0FBECDBF98A36E
:101430008F8F8F8D98A12AE030E0B9010E948A0E2B
:101440008E8F8F8D98A12AE030E0B9010E949E0E08
:10145000CB018D8F81E00E94C1098E8D882F90E095
:101460000E94AC0980E090E0A0EAB0E4898F9A8FF6
:10147000AB8FBC8F698D7A8D8B8D9C8D20E030E099
:101480004AE753E40E941F02DC01CB018D8B9E8B47
:10149000AF8BB88F6D897E898F89988D20E030E081
:1014A00040E85FE30E94790388232CF481E090E018
:1014B0009C8B8B8B3FC06D897E898F89988D20E0B6
:1014C0003FEF4FE757E40E94190318164CF5698D5A
:1014D0007A8D8B8D9C8D20E030E040E251E40E94BB
:1014E0001F02DC01CB01BC01CD010E944900DC01DF
:1014F000CB019C8B8B8B0FC089E190E09A8B898B01
:1015000089899A890197F1F79A8B898B8B899C89B4
:1015100001979C8B8B8B8B899C89009769F714C0F2
:101520006D897E898F89988D0E944900DC01CB01ED
:101530009C8B8B8B8B899C89988B8F878F859889C7
:101540000197F1F7988B8F8782E00E94C1098D8DFA
:10155000882F90E00E94AC0980E090E0A0EAB0E41F
:101560008B879C87AD87BE876B857C858D859E85A7
:1015700020E030E04AE753E40E941F02DC01CB0187
:101580008F839887A987BA876F81788589859A859F
:1015900020E030E040E85FE30E94790388232CF4E8
:1015A00081E090E09E838D833FC06F81788589853F
:1015B0009A8520E03FEF4FE757E40E941903181681
:1015C0004CF56B857C858D859E8520E030E040E282
:1015D00051E40E941F02DC01CB01BC01CD010E943D
:1015E0004900DC01CB019E838D830FC089E190E02F
:1015F0009C838B838B819C810197F1F79C838B83E8
:101600008D819E8101979E838D838D819E81009720
:1016100069F714C06F81788589859A850E94490091
:10162000DC01CB019E838D838D819E819A8389838A
:1016300089819A810197F1F79A838983A0960FB6E1
:10164000F894DEBF0FBECDBFCF91DF910895DF9339
:10165000CF93CDB7DEB70E946B060E94F7060E94BB
:1016600084080E9476080E9460090E9491090E94E5
:10167000870D0E945B0D0E94BE0D1092740180E0E8
:1016800090E00E94CA088F3F59F080E090E00E94ED
:10169000CA08882F90E0909378018093770106C064
:1016A00082E390E090937801809377010E94870C09
:1016B0008091770190917801282F80E090E0622F4F
:1016C0000E94EB08CF91DF910895DF93CF93CDB7C0
:1016D000DEB70E94030A0E9483090E94AE080E949E
:1016E000BC080E94380DCF91DF910895DF93CF930E
:1016F000CDB7DEB780917501813091F50E94BF06AC
:10170000CC01A0E0B0E0BC01CD010E94FD03DC01F2
:10171000CB01BC01CD0120E030E040E05FE30E945E
:101720001F02DC01CB01BC01CD010E944900DC019C
:10173000CB0190937C0180937B0120917B013091C0
:101740007C0180E891E0B9010E94CE0C80E891E034
:101750000E94FA0C90937E0180937D011092750196
:1017600080917B0190917C010E940D0A0E942A0CBD
:101770000E94D707813021F00E943807813039F468
:101780000E94EE091092760182E080937401CF915D
:10179000DF910895DF93CF93CDB7DEB70E94AE08F7
:1017A0000E94BC080E9483098091790190917A017E
:1017B0008130910539F480917701909178010E94F0
:1017C0000D0A02C00E94030A0E94D7078130C9F4A3
:1017D00080917701909178018B34910590F48091FC
:1017E0007701909178010596909378018093770125
:1017F0001092760180917701909178010E940D0AF4
:101800001CC00E9438078130C1F48091770190910B
:1018100078018432910588F0809177019091780168
:1018200005979093780180937701109276018091CB
:101830007701909178010E940D0A80917701909133
:101840007801282F80E090E0622F0E94EB08CF9172
:10185000DF910895DF93CF93CDB7DEB780917D01FF
:1018600090917E019C012B5F3F4F80917701909179
:10187000780182179307A8F480917D0190917E01F1
:101880009C01255030408091770190917801281774
:10189000390738F40E94AE080E94BC080E948309F0
:1018A00033C080917D0190917E019C012B5F3F4F61
:1018B00080917701909178018217930738F40E9404
:1018C000AE080E94A0080E9475091EC080917D018B
:1018D00090917E019C01255030408091770190913C
:1018E00078012817390780F40E9492080E94BC08EA
:1018F0008091790190917A018130910519F40E94CB
:10190000750902C00E948309CF91DF910895DF938A
:10191000CF9300D00F92CDB7DEB70E94BF06CC01A7
:10192000A0E0B0E0BC01CD010E94FD03DC01CB01D1
:10193000BC01CD0120E030E040E05FE30E941F02E7
:10194000DC01CB01BC01CD010E944900DC01CB01CF
:101950009B838A8319820FC08981882F90E0880F2A
:10196000991FFC01E058FE4F8A819B8191838083FF
:1019700089818F5F898389818A3070F380E891E063
:101980000E94FA0C90937E0180937D011092730166
:101990000F900F900F90CF91DF910895DF93CF9329
:1019A00000D000D0CDB7DEB79A8389837C836B8368
:1019B00080917301882F90E09C01220F331F898151
:1019C0009A81FC01E20FF31F8B819C8191838083BC
:1019D000809173018F5F80937301809173018A30CE
:1019E00011F4109273010F900F900F900F90CF9100
:1019F000DF910895DF93CF93CDB7DEB727970FB66A
:101A0000F894DEBF0FBECDBF9F838E831D821C82E4
:101A1000198216C08981882F90E09C01220F331F04
:101A20008E819F81FC01E20FF31F208131818C8127
:101A30009D81820F931F9D838C8389818F5F898312
:101A400089818A3038F38C819D812AE030E0B901A8
:101A50000E948A0ECB019B838A838A819B81279671
:101A60000FB6F894DEBF0FBECDBFCF91DF910895C2
:101A7000DF93CF93CDB7DEB7A5E5B0E0E5E5F0E0C5
:101A800080818F7E8C93A5E5B0E0E5E5F0E0808174
:101A90008F7D8C93A5E5B0E0E5E5F0E080818F7B5C
:101AA0008C93A5E5B0E0E5E5F0E0808180688C935B
:101AB000CF91DF910895DF93CF93CDB7DEB7AEE43A
:101AC000B0E0EEE4F0E0808188608C93EBE4F0E03D
:101AD0001082EAE4F0E082E68083AEE4B0E0EEE477
:101AE000F0E0808181608C93AEE4B0E0EEE4F0E061
:101AF00080818D7F8C93AEE4B0E0EEE4F0E08081F5
:101B000084608C930E944409CF91DF910895DF9304
:101B1000CF93CDB7DEB7A3E5B0E0E3E5F0E0808199
:101B200088608C93ECE5F0E08AEF8083A3E5B0E079
:101B3000E3E5F0E0808181608C93A3E5B0E0E3E52C
:101B4000F0E0808184608C930E944409A9E5B0E0B4
:101B5000E9E5F0E0808182608C93CF91DF91089578
:101B6000DF93CF93CDB7DEB7A9E5B0E0E9E5F0E0CC
:101B700080818F7E8C93CF91DF910895DF93CF93F7
:101B8000CDB7DEB7A9E5B0E0E9E5F0E0808180619E
:101B90008C93CF91DF9108951F920F920FB60F9201
:101BA00011242F933F934F935F936F937F938F9362
:101BB0009F93AF93BF93EF93FF93DF93CF93CDB7F3
:101BC000DEB780917401882371F481E08093740101
:101BD00080E090E00E94CA08882F90E090937801FE
:101BE000809377010AC080917401813021F0809147
:101BF0007401823011F410927401CF91DF91FF9142
:101C0000EF91BF91AF919F918F917F916F915F9174
:101C10004F913F912F910F900FBE0F901F901895ED
:101C20001F920F920FB60F9211248F93DF93CF93D1
:101C3000CDB7DEB781E080937501CF91DF918F91B1
:101C40000F900FBE0F901F9018951F920F920FB616
:101C50000F9211242F933F938F939F93DF93CF93F2
:101C6000CDB7DEB780917401823021F0809174018C
:101C7000813001F5809176018F5F809376018091AC
:101C80007601882F90E083709070009761F48091C6
:101C9000790190917A0121E030E082279327909397
:101CA0007A018093790180917601853118F081E085
:101CB00080937401CF91DF919F918F913F912F91EC
:101CC0000F900FBE0F901F901895DF93CF9300D009
:101CD000CDB7DEB70E94270B80917401282F30E02A
:101CE0003A83298389819A818130910551F0298134
:101CF0003A812230310559F089819A81009721F08B
:101D0000EBCF0E94760BE8CF0E94650BE5CF0E94D7
:101D1000CA0BE2CFAA1BBB1B51E107C0AA1FBB1F06
:101D2000A617B70710F0A61BB70B881F991F5A9567
:101D3000A9F780959095BC01CD01089597FB092ED8
:101D400007260AD077FD04D0E5DF06D000201AF47C
:101D5000709561957F4F0895F6F7909581959F4F07
:101D600008952F923F924F925F926F927F928F923F
:101D70009F92AF92BF92CF92DF92EF92FF920F931A
:101D80001F93CF93DF93CDB7DEB7CA1BDB0B0FB624
:101D9000F894DEBF0FBECDBF09942A8839884888E1
:101DA0005F846E847D848C849B84AA84B984C88477
:101DB000DF80EE80FD800C811B81AA81B981CE0F6E
:101DC000D11D0FB6F894DEBF0FBECDBFED01089553
:041DD000F894FFCFB5
:101DD40000000000000000000001020203030303EE
:101DE40004040404040404040505050505050505A7
:101DF4000505050505050505060606060606060687
:101E0400060606060606060606060606060606066E
:101E14000606060606060606070707070707070756
:101E2400070707070707070707070707070707073E
:101E3400070707070707070707070707070707072E
:101E4400070707070707070707070707070707071E
:101E54000707070707070707080808080808080806
:101E640008080808080808080808080808080808EE
:101E740008080808080808080808080808080808DE
:101E840008080808080808080808080808080808CE
:101E940008080808080808080808080808080808BE
:101EA40008080808080808080808080808080808AE
:101EB400080808080808080808080808080808089E
:101EC400080808080808080808080808080808088E
:101ED40008080808080808083F065B4F666D7D0778
:021EE4007F6F0E
:00000001FF
