:100000000C942A000C9447000C9447000C94A1080F
:100010000C9447000C9447000C9447000C9449083A
:100020000C9447000C9447000C9458080C9447001B
:100030000C9447000C9447000C9447000C94470024
:100040000C9447000C9447000C9447000C94470014
:100050000C94470011241FBECFE5D8E0DEBFCDBF12
:1000600011E0A0E6B0E0E0E7F2E102C005900D92F9
:10007000A237B107D9F711E0A2E7B1E001C01D92A4
:10008000A439B107E1F70E948D080C9436090C944D
:100090000000EF92FF920F931F937B018C0120E0F1
:1000A00030E040E05FE40E94190388238CF0C8012F
:1000B000B70120E030E040E05FE40E94C1010E940F
:1000C00049039B01AC01205030404040504806C0DD
:1000D000C801B7010E9449039B01AC01B901CA01E3
:1000E0001F910F91FF90EF900895A0E0B0E0EBE733
:1000F000F0E00C94FF08DC012B01FA019C91923096
:1001000008F439C1EB018881823008F433C194309E
:1001100069F4843009F02FC111969C91119789815F
:10012000981709F428C1A0E6B0E025C1843009F48D
:1001300021C18230A9F4923009F01DC19A01AD01AC
:1001400088E0EA010990AE01E90109929E0181501F
:10015000C1F7E201898111969C918923818308C1AD
:10016000923009F407C112962D903C901397EB0141
:100170008A819B811496AD90BD90CD90DC901797AD
:10018000EC80FD800E811F819101281B390BB90184
:1001900037FF04C066277727621B730B6032710537
:1001A0000CF061C0121613066CF537014801062EDB
:1001B00004C096948794779467940A94D2F721E0C8
:1001C00030E040E050E004C0220F331F441F551FB1
:1001D0006A95D2F721503040404050402E213F21B7
:1001E00040235123211531054105510521F021E01E
:1001F00030E040E050E079018A01E628F72808293C
:1002000019293CC0232BD1F1260E371E350146019A
:10021000062E04C096948794779467940A94D2F734
:1002200021E030E040E050E004C0220F331F441FC3
:10023000551F6A95D2F721503040404050402A2146
:100240003B214C215D21211531054105510521F04E
:1002500021E030E040E050E059016A01A628B728CB
:10026000C828D9280BC0821593052CF01C01AA249C
:10027000BB24650103C0EE24FF24870111969C91E5
:10028000D20111968C91981709F445C0992339F041
:10029000A80197012A193B094C095D0906C0A6016E
:1002A00095012E193F09400B510B57FD08C01182D3
:1002B0003382228224833583468357831DC081E0A5
:1002C00081833382228288279927DC01821B930B4A
:1002D000A40BB50B84839583A683B7830DC0220F2F
:1002E000331F441F551F24833583468357838281E0
:1002F000938101979383828324813581468157813D
:10030000DA01C9010197A109B1098F5F9F4FAF4F72
:10031000BF4328F30BC0918333822282EA0CFB1C7B
:100320000C1D1D1DE482F5820683178383E0808304
:10033000248135814681578157FF1AC0C901AA27F8
:1003400097FDA095BA2F81709070A070B0705695EF
:10035000479537952795822B932BA42BB52B848318
:100360009583A683B7838281938101969383828349
:10037000DF0101C0D201CD01CDB7DEB7E2E10C94BF
:100380001B09A0E2B0E0E7ECF1E00C940B096983F3
:100390007A838B839C832D833E834F835887E9E048
:1003A000EE2EF12CEC0EFD1ECE010196B7010E943F
:1003B0003A058E010F5E1F4FCE010596B8010E94CF
:1003C0003A058A8991E089278A8BC701B801AE0175
:1003D000475E5F4F0E9475000E946504A096E6E0AC
:1003E0000C942709A0E2B0E0E8EFF1E00C940B09CF
:1003F00069837A838B839C832D833E834F835887C5
:10040000F9E0EF2EF12CEC0EFD1ECE010196B701A6
:100410000E943A058E010F5E1F4FCE010596B8016E
:100420000E943A05C701B801AE01475E5F4F0E94C6
:1004300075000E946504A096E6E00C942709A0E2EE
:10044000B0E0E5E2F2E00C94FF0869837A838B83E5
:100450009C832D833E834F835887CE010196BE0136
:10046000675F7F4F0E943A05CE010596BE016F5E21
:100470007F4F0E943A059985923088F089898230B1
:10048000C8F0943019F4823051F404C0843029F457
:10049000923081F480E690E0C6C0923049F420E0CA
:1004A0009A858A89981321E02A87CE010996BBC0D4
:1004B000823049F420E09A858A89981321E02A8BBA
:1004C000CE014196B0C02D843E844F8458886D88FB
:1004D0007E888F88988CEE24FF248701AA24BB2471
:1004E000650140E050E060E070E0E0E0F0E0C10174
:1004F00081709070892BE9F0E60CF71C081D191D1E
:100500009A01AB012A0D3B1D4C1D5D1D80E090E062
:10051000A0E0B0E0E614F7040805190520F481E036
:1005200090E0A0E0B0E0BA01A901480F591F6A1F8E
:100530007B1FAA0CBB1CCC1CDD1C97FE08C081E0F5
:1005400090E0A0E0B0E0A82AB92ACA2ADB2A3196B6
:10055000E032F10549F0660C771C881C991C569412
:10056000479437942794C3CFFA85EA892B893C892D
:100570008B859C85280F391F2E5F3F4F17C0CA01FE
:1005800081709070892B61F016950795F794E79428
:1005900080E090E0A0E0B0E8E82AF92A0A2B1B2BC3
:1005A00076956795579547952F5F3F4F77FDE7CF36
:1005B0000CC0440F551F661F771F17FD4160EE0CDE
:1005C000FF1C001F111F21503040403090E05907A0
:1005D00090E0690790E4790760F32B8F3C8FDB0193
:1005E000CA018F779070A070B07080349105A1051A
:1005F000B10561F447FD0AC0E114F10401051105DC
:1006000029F0405C5F4F6F4F7F4F40781A8EFE1786
:1006100011F081E08A8F4D8F5E8F6F8F78A383E01A
:10062000898FCE0149960E946504A096E2E10C9460
:100630001B09A8E1B0E0EFE1F3E00C940B0969833A
:100640007A838B839C832D833E834F83588789E0F5
:10065000E82EF12CEC0EFD1ECE010196B7010E9492
:100660003A058E010F5E1F4FCE010596B8010E941C
:100670003A058985823040F08989823028F0C701A7
:10068000B8010E94B20501C08FEF6896E6E00C94B5
:100690002709ACE0B0E0EFE4F3E00C940F096983C4
:1006A0007A838B839C83CE010196BE016B5F7F4F63
:1006B0000E943A058D81823061F1823050F18430A0
:1006C00021F48E81882351F12EC02F81388537FD8A
:1006D00020C06E812F3131051CF06623F9F023C054
:1006E0008EE190E0821B930B29853A854B855C85D2
:1006F00004C056954795379527958A95D2F7662376
:10070000B1F050954095309521953F4F4F4F5F4F39
:100710000EC020E030E040E050E009C02FEF3FEF96
:100720004FEF5FE704C020E030E040E050E8B9015F
:10073000CA012C96E2E00C942B09A8E0B0E0E3EAB1
:10074000F3E00C9407097B018C01611571058105AB
:10075000910519F482E0898360C083E089838EE18A
:10076000C82ED12CDC82CB82ED82FE820F831887CB
:10077000C801B7010E941604FC013197F7FF3BC086
:10078000222733272E1B3F0B57016801022E04C07E
:10079000D694C794B794A7940A94D2F740E050E057
:1007A00060E070E081E090E0A0E0B0E004C0880F7D
:1007B000991FAA1FBB1F2A95D2F70197A109B1095A
:1007C0008E219F21A023B1230097A105B10521F01F
:1007D00041E050E060E070E04A295B296C297D2906
:1007E0004D835E836F8378878EE190E08E1B9F0B35
:1007F0009C838B8312C0309781F00E2E04C0EE0CC8
:10080000FF1C001F111F0A94D2F7ED82FE820F8396
:100810001887CE1ADF0ADC82CB821A82CE010196BB
:100820000E9465042896EAE00C942309EF92FF9257
:100830000F931F937B018C0180E0E81680E0F8069F
:1008400081E0080780E0180788F48FEFE816F104CC
:100850000105110531F028F088E090E0A0E0B0E05B
:1008600017C080E090E0A0E0B0E012C080E0E816A1
:1008700080E0F80680E0080781E0180728F088E1AA
:1008800090E0A0E0B0E004C080E190E0A0E0B0E043
:1008900020E230E040E050E0281B390B4A0B5B0BB4
:1008A00004C016950795F794E7948A95D2F7F70157
:1008B000E859FF4F8081281B310941095109C901BD
:1008C0001F910F91FF90EF900895DF92EF92FF92AA
:1008D0000F931F93FC01E480F58006811781D1807E
:1008E0008081823048F480E090E0A0E1B0E0E82A26
:1008F000F92A0A2B1B2BA5C0843009F49FC0823033
:1009000021F4EE24FF24870105C0E114F104010560
:10091000110519F4E0E0F0E096C0628173819FEF69
:10092000623879070CF05BC022E83FEF261B370BDB
:100930002A3131052CF020E030E040E050E02AC0C0
:10094000B801A701022E04C0769567955795479583
:100950000A94D2F781E090E0A0E0B0E004C0880FF4
:10096000991FAA1FBB1F2A95D2F70197A109B109A8
:100970008E219F21A023B1230097A105B10521F06D
:1009800081E090E0A0E0B0E09A01AB01282B392B88
:100990004A2B5B2BDA01C9018F779070A070B07081
:1009A00080349105A105B10539F427FF09C0205C09
:1009B0003F4F4F4F5F4F04C0215C3F4F4F4F5F4F42
:1009C000E0E0F0E02030A0E03A07A0E04A07A0E431
:1009D0005A0710F0E1E0F0E079018A0127C06038A1
:1009E000710564F5FB01E158FF4FD801C7018F770E
:1009F0009070A070B07080349105A105B10539F4F4
:100A0000E7FE0DC080E490E0A0E0B0E004C08FE31A
:100A100090E0A0E0B0E0E80EF91E0A1F1B1F17FFD0
:100A200005C016950795F794E794319687E01695DB
:100A30000795F794E7948A95D1F705C0EE24FF2433
:100A40008701EFEFF0E06E2F679566276795902F8F
:100A50009F77D794DD24D7948E2F8695492F462BE8
:100A6000582F5D29B701CA011F910F91FF90EF9098
:100A7000DF900895FC01DB01408151812281622FCA
:100A80006F7770E0221F2227221F9381892F880F02
:100A9000822B282F30E0991F9927991F11969C933C
:100AA000119721153105A9F541155105610571050C
:100AB00011F482E037C082E89FEF13969C938E93E7
:100AC00012979A01AB0167E0220F331F441F551F95
:100AD0006A95D1F783E08C930DC0220F331F441F1A
:100AE000551F12968D919C911397019713969C9385
:100AF0008E931297203080E0380780E0480780E42A
:100B0000580758F314962D933D934D935C93179784
:100B100008952F3F310579F441155105610571059F
:100B200019F484E08C93089564FF03C081E08C93F2
:100B300012C01C9210C02F57304013963C932E9336
:100B4000129783E08C9387E0440F551F661F771F31
:100B50008A95D1F7706414964D935D936D937C9351
:100B6000179708951F93DC01FB019C91923008F4C4
:100B700047C08081823008F443C0943051F411960C
:100B80001C91843099F58181682F70E0611B710997
:100B90003FC0843021F0923031F48230B9F181814C
:100BA000882389F12DC011961C9111978230F1F0A4
:100BB00081811817D9F412962D913C911397828157
:100BC00093818217930794F028173907BCF0149685
:100BD0008D919D910D90BC91A02D248135814681F0
:100BE0005781281739074A075B0718F4112341F08A
:100BF0000AC082179307A407B50740F4112319F020
:100C000061E070E005C06FEF7FEF02C060E070E070
:100C1000CB011F9108953E9A389839983A983B989D
:100C20003C983D98309A31983298379A0895369A80
:100C3000309BFECF24B130E045B1349A942F80E050
:100C4000282B392BC9010895B39B02C080E0089579
:100C500088EA91E60197F1F786B3869586958695A1
:100C6000809581700895B19B02C080E0089588EA64
:100C700091E60197F1F786B3869580958170089586
:100C8000BA98B998BB98C29AC19AC39A0E9476063C
:100C900084B7806484BF8BB780628BBF0895BC9A91
:100CA0000895BD9A0895C49A0895C59A0895C49860
:100CB0000895C59808958EBB9FBBE09A8DB30895A3
:100CC0008EBB9FBB6DBB0FB607FC02C080E004C0AB
:100CD0008FB78F778FBF81E0E29AE19AE199FECFDB
:100CE000813019F48FB780688FBF08958FB78068FF
:100CF0008FBF08958FB78F778FBF0895B89AC09828
:100D00000895C09A0895C09808958FEF81BBBE9A48
:100D1000BF9AC698C7980895FC01E859FE4F808194
:100D200082BB0895813019F4C69AC798089582301D
:100D300011F4C79AC6980895C698C798089512BA2C
:100D40000895CF92DF92EF92FF920F931F936C0161
:100D500081E00E949206C6016AE070E00E94D80815
:100D600008E611E0F801E80FF11D808182BB84EDF7
:100D7000E82E80E3F82EC7010197F1F782E00E9488
:100D80009206C6016AE070E00E94EC08060F111D91
:100D9000F801808182BBC7010197F1F71F910F9184
:100DA000FF90EF90DF90CF900895BC0140E050E0BD
:100DB00020E030E0FB01E20FF31F80819181480FBA
:100DC000591F2E5F3F4F24313105A1F7CA016AE058
:100DD00070E00E94D808CB010895E0917301F0E023
:100DE000EE0FFF1FE80FF91F71836083809173017D
:100DF0008F5F809373018A3011F41092730108950C
:100E000085B78F7E85BF85B78F7D85BF85B78F7B83
:100E100085BF85B7806885BF08950E941706A0E04A
:100E2000B0E0BC01CD010E949D0320E030E040E035
:100E30005FE30E941F020E944900E0E8F1E0619335
:100E4000719381E0E439F807D1F7CF0144970E940C
:100E5000D50690937E0180937D01109273010895D1
:100E6000209177013091780180917D0190917E01F0
:100E7000AC014250504002962817390778F44217C7
:100E8000530738F40E9457060E9459060E948306B1
:100E900008950E9457060E9455060DC04217530739
:100EA00078F40E9453060E9459068091790190912E
:100EB0007A01019719F40E94810608950E94830621
:100EC00008950E949F060E9483060E9457060E9472
:100ED00059060E94000708950E9457060E9459066D
:100EE0000E9483068091790190917A01019739F4EB
:100EF00080917701909178010E94A10602C00E9422
:100F00009F060E943306813049F4809177019091C9
:100F100078018B34910510F405960CC00E942406CC
:100F2000813081F48091770190917801843291052C
:100F300048F005979093780180937701109276019D
:100F40000E94A10680E090E0609177010E94600617
:100F5000089580917501813029F50E941706A0E05F
:100F6000B0E0BC01CD010E949D0320E030E040E0F4
:100F70005FE30E941F020E9449009B01AC01709335
:100F80007C0160937B0180E891E0B9010E94ED064D
:100F900080E891E00E94D50690937E0180937D01C8
:100FA0001092750180917B0190917C010E94A106B5
:100FB0000E9430070E943306813021F00E942406EF
:100FC000813039F40E949C061092760182E0809371
:100FD000740108950E9476060E940B060E9426085E
:100FE0000E9437080E9422080E9440060E94510673
:100FF0000E944F060E947E060E9485061092740190
:1010000080E090E00E945B068F3F49F080E090E036
:101010000E945B06809377011092780106C08DE2F2
:1010200090E090937801809377010E940D0780E013
:1010300090E0609177010E946006089589B78F7EE5
:1010400089BF089589B7806189BF089583B7886093
:1010500083BF8AEF8CBF83B7816083BF83B784600F
:1010600083BF0E94760689B7826089BF08958EB5D6
:1010700088608EBD1BBC82E68ABD8EB581608EBD48
:101080008EB58D7F8EBD8EB584608EBD0E94760636
:1010900008951F920F920FB60F9211248F9381E043
:1010A000809375018F910F900FBE0F901F90189530
:1010B0001F920F920FB60F9211242F933F934F93CD
:1010C0008F939F938091740181508230E0F440911E
:1010D00076014F5F40937601842F90E0837090708B
:1010E000892B61F48091790190917A0121E030E0BF
:1010F0008227932790937A0180937901453118F0E4
:1011000081E0809374019F918F914F913F912F9136
:101110000F900FBE0F901F9018950E94EA078091C4
:101120007401813029F0813030F08230D1F706C06F
:101130000E94A907F4CF0E946107F1CF0E946C07BB
:10114000EECF1F920F920FB60F9211242F933F9361
:101150004F935F936F937F938F939F93AF93BF93BF
:10116000EF93FF9380917401882361F481E0809371
:10117000740180E090E00E945B06809377011092FA
:10118000780105C08150823010F410927401FF91F3
:10119000EF91BF91AF919F918F917F916F915F91EF
:1011A0004F913F912F910F900FBE0F901F90189568
:1011B000AA1BBB1B51E107C0AA1FBB1FA617B7077D
:1011C00010F0A61BB70B881F991F5A95A9F7809599
:1011D0009095BC01CD01089597FB092E07260AD0F2
:1011E00077FD04D0E5DF06D000201AF470956195F4
:1011F0007F4F0895F6F7909581959F4F08952F9210
:101200003F924F925F926F927F928F929F92AF9296
:10121000BF92CF92DF92EF92FF920F931F93CF93E3
:10122000DF93CDB7DEB7CA1BDB0B0FB6F894DEBF7A
:101230000FBECDBF09942A88398848885F846E84A0
:101240007D848C849B84AA84B984C884DF80EE80EA
:10125000FD800C811B81AA81B981CE0FD11D0FB6F3
:10126000F894DEBF0FBECDBFED010895F894FFCF17
:10127000000000000000000000010202030303035D
:101280000404040404040404050505050505050516
:1012900005050505050505050606060606060606F6
:1012A00006060606060606060606060606060606DE
:1012B00006060606060606060707070707070707C6
:1012C00007070707070707070707070707070707AE
:1012D000070707070707070707070707070707079E
:1012E000070707070707070707070707070707078E
:1012F0000707070707070707080808080808080876
:10130000080808080808080808080808080808085D
:10131000080808080808080808080808080808084D
:10132000080808080808080808080808080808083D
:10133000080808080808080808080808080808082D
:10134000080808080808080808080808080808081D
:10135000080808080808080808080808080808080D
:1013600008080808080808080808080808080808FD
:1013700008080808080808083F065B4F666D7D07E7
:021380007F6F7D
:00000001FF
